:020000040800F2
:100000000000022059030008A9030008A903000802
:10001000A9030008A9030008A903000800000000C4
:10002000000000000000000000000000A90300081C
:10003000A903000800000000A9030008A9030008A4
:10004000A9030008A9030008A9030008A9030008E0
:10005000A9030008A9030008A9030008A9030008D0
:10006000A9030008A9030008A9030008A9030008C0
:10007000A9030008A9030008A9030008A9030008B0
:10008000A9030008A9030008A9030008A9030008A0
:10009000A9030008A9030008A9030008A903000890
:1000A000A9030008A9030008A9030008A903000880
:1000B000A9030008A9030008A9030008A903000870
:1000C000A9030008A9030008A9030008A903000860
:1000D000A9030008A9030008A9030008A903000850
:1000E000A9030008A9030008A9030008A903000840
:1000F000A9030008A9030008A9030008A903000830
:10010000A9030008A9030008A9030008A90300081F
:10011000A9030008A9030008A9030008A90300080F
:10012000A9030008A9030008A9030008A9030008FF
:10013000A90300080000000000000000A903000857
:10014000A9030008A9030008A9030008A9030008DF
:10015000A9030008A9030008A9030008A9030008CF
:10016000A9030008A9030008A9030008A9030008BF
:10017000A9030008A9030008A90300080000000063
:1001800000000000A90300080000000000000000BB
:10019000A90300080000000000000000A9030008F7
:1001A000000000000000000000000000A90300089B
:1001B000A9030008A9030008A9030008A90300086F
:0401C000A903000887
:1001C4000348044B834202D0034B03B118477047E2
:1001D4000000002000000020000000000548064B3D
:1001E4001B1AD90F01EBA301491002D0034B03B131
:1001F40018477047000000200000002000000000A5
:1002040010B5064C237843B9FFF7DAFF044B13B15A
:100214000448AFF300800123237010BD00000020C8
:1002240000000000F403000808B5054B1BB10549A4
:100234000548AFF30080BDE80840FFF7CFBF00BF1B
:100244000000000004000020F403000880B400AFA4
:100254000E4B1B6B0D4A23F00F0313630B4B1B6BED
:100264000A4A43F001031363094B1B68084A23F449
:1002740040631360064B1B68054A43F480631360B4
:1002840000BFBD465DF8047B704700BF00380240E4
:100294000000024080B400AF0A4B00221A60094BF0
:1002A4006FF07F425A60074B00229A60054B1B682F
:1002B400044A43F00503136000BFBD465DF8047BA8
:1002C400704700BF10E000E080B483B000AF034685
:1002D400FB80FB88013B4FF47A5203FB02F2094B8B
:1002E4005A60084B00229A6000BF064B1B6803F457
:1002F4008033002BF9D000BF00BF0C37BD465DF83A
:10030400047B704710E000E080B500AFFFF79EFF6C
:10031400FFF7C0FF054B5B69044A83F02003536178
:100324004FF47A70FFF7D0FF00BFF3E700000240FC
:1003340080B400AF064BD3F88830054A43F4700309
:10034400C2F8883000BFBD465DF8047B704700BF2B
:1003540000ED00E0DFF834D00D480E490E4A0023CA
:1003640002E0D458C4500433C4188C42F9D30B4A65
:100374000B4C002301E013600432A242FBD3FFF7CD
:10038400D7FF00F011F8FFF7BFFF7047000002200D
:1003940000000020000000201404000800000020D9
:1003A4001C000020FEE7000070B50D4D0D4C641BD1
:1003B400A4100026A64209D10B4D0C4C00F018F8ED
:1003C400641BA4100026A64205D170BD55F8043B59
:1003D40098470136EEE755F8043B98470136F2E7B3
:1003E4000C0400080C0400080C04000810040008A5
:1003F400F8B500BFF8BC08BC9E467047F8B500BF0E
:08040400F8BC08BC9E467047DD
:04040C002D020008B5
:0404100005020008D9
:040000050800035993
:00000001FF
